:0E0000000C945D000C9400000C9400000C9415
:10000E0000000C9400000C9400000C9400000C9462
:10001E0000000C9400000C9400000C9400000C9452
:10002E0000000C9400000C9400000C9400000C9442
:10003E0000000C9400000C9400000C9400000C9432
:10004E0000000C9400001027E80364000A00010071
:10005E0000100001100001002800140024004400CC
:10006E001200220042001100210041008100820096
:10007E00840018004800880030313233343536376A
:10008E0038392F2A2D633D2B6300000025640000B4
:10009E0080C01F0060016600100080018600040011
:1000AE00040096000200A6019E000000F894EE27C0
:1000BE00ECBBF1E0FBBFEBBFE5BFF8E1F1BDE1BD8D
:1000CE008DE0A2E0BB27ED938A95E9F780E094E0FE
:1000DE00A0E6ED930197E9F7E0EAF0E085919591BE
:1000EE00009761F0A591B59105901590BF01F001B3
:1000FE0005900D920197E1F7FB01F0CFEFE5EDBF13
:10010E00E4E0EEBFC0E6D1E00C946101EFE0E1BBAC
:10011E00E2BB80B29924E1E0F0E00E940D04E0EF32
:10012E00E1BBE2BBA0B2BB24F501E821F9216F01CE
:10013E000C2C0D2829F4E0E0E093A401E093A50136
:10014E0008950E941104EA0FFB1F10C00E941104B3
:10015E000E94A9040BC0A881B981EA81FB81EA1B28
:10016E00FB0B04C00E9411040E9491042496089572
:10017E0066247724E0E1F0E06E167F0614F00C940E
:10018E004D01F301A0E6B1E0EE0FFF1FAE0FBF1F52
:10019E000E94BC04EC15FD0511F00C944901A091D0
:1001AE00A401B091A501119709F470C0E1E0F0E04F
:1001BE00E093A401F093A501A0E8B1E0A60DB71D50
:1001CE005C90A0919001B0919101A131E7E2BE0740
:1001DE000CF05CC0E3E6E51549F44E2EE0E0E0934A
:1001EE009201E09393010E94160450C0EFE2E515D0
:1001FE0049F0EAE2E51531F0EBE2E51519F0EDE232
:10020E00E51551F4452C0E941D04E0939201F093E4
:10021E0093010E9416043AC0EDE3E51521F5EFE2D5
:10022E00E41531F40E94220491DF0E942C042EC0AA
:10023E00EAE2E41531F40E94220494DF0E942C04B9
:10024E0025C0EDE2E41531F40E94220484DF0E9401
:10025E002C041CC0EBE2E41531F40E94220471DF81
:10026E000E942C0413C0EAE0F0E06E167F0654F4F0
:10027E000E941D04AAE0B0E00E949104E60DF71D55
:10028E000E942C04F30131963F0174CF0895E4E9E6
:10029E00F1E0FA93EA93EAE9F0E0FA93EA930E9426
:1002AE001D040E9484040E94C40484E00E94C203C0
:1002BE0028960895E0E0EBBBEABBE8BBE7BBE5BBE5
:1002CE00EFEFE4BBE0E0E2BBE1BBE3BFE2BFECBFBC
:1002DE00EFBDEEBDEDBDECBDE7BDE6BDEBBDEABDD0
:1002EE00E9BDE8BDE2BDE5BDE4BDE3BDE5BFE4BFEC
:1002FE00E9BFEAB9E0E8E8B9E0E0E0BFE6B9EDB998
:10030E00E6BFE0E1EA9390D001DF32DFC0DFE0E04C
:10031E00EA93EA9339D0E4E9F1E0FA93EA9375D0DF
:10032E00F3CFFFCFE881E07111F0AC9A01C0AC9829
:10033E00E881E07211F0AD9A01C0AD98E881E074E9
:10034E0011F0AE9A01C0AE98E881E07811F0AF9A44
:10035E0001C0AF988BE18A95F1F7AA9A83E48A954A
:10036E00F1F7AA9883E48A95F1F790C0E881EA93B1
:10037E00D9DFE881E295E883E881EA93D3DF84EF61
:10038E0091E00197F1F782C0E881F0E0EA55FE4F67
:10039E00E081A981EA0FEA93E9DFE981E093AA01FE
:1003AE00E881E093AB0122960895E2E00E943104C9
:1003BE00ECE0EA93DBDFE1E00E943104E0E0E09361
:1003CE00AB01E093AA010895A881AA3031F0E09123
:1003DE00AC01A091AA01AE1768F0E0E0EA93E091BB
:1003EE00AB01EF5FE093AB01EA93CEDFA881AA30B9
:1003FE0009F44CC0E091AA01EF5FE093AA01A89A1C
:10040E00E881EA93B3DFA89841C01A93A981BA8113
:10041E00ED91A983BA831E2FE03019F01A93D4DF21
:10042E00F5CF188123960895A49AA59AA69AA79A0D
:10043E00A29AA09AA19AAA98A898A998E881E0935E
:10044E00AC01E058E093A801E881E054E093A901E3
:10045E00E4E1F0E00E940D040E9437040E9437048C
:10046E000E943704E0E2EA935DDF88EE93E00197A5
:10047E00F1F7E8E2EA937ADFE4E0EA9377DFE5E882
:10048E00EA9374DFE6E0EA9371DF8FDF2196089539
:10049E001A930A93AA81BB8112960E94BC043097CC
:1004AE0059F1AA81BB8114960E94BC048F0130972A
:1004BE0061F00230E0E01E07F0F0F80131978F0195
:1004CE00AA81BB811496ED93FC93AA81BB811296EF
:1004DE00ED91FD913196FE93EE933197AC81A08311
:1004EE00AA81BB810E94BC04FF232AF0ED91FD91ED
:1004FE003196FE93EE9306C0AA81BB81EFEFFFEF1C
:10050E00ED93FC93198108812596089526970E94F4
:10051E00C90410E0AC85BD85E0E0F0E0ED93FC93FE
:10052E00EA89FB893196EA8BFB8B3197E4912E2F6A
:10053E00E03011F40C94BA03E12FE03039F4253297
:10054E0011F411E002C00E9440040CC1E130A9F484
:10055E00253219F40E94400404C112E040E000E08C
:10056E002D3211F401E0FEC02B3211F44BE2FAC031
:10057E00203211F440E2F6C002C0E23039F450E00D
:10058E0013E0203311F40068EDC004C0E33011F025
:10059E000C94B903203310F02A3308F007C0AAE0F8
:1005AE005A9F502DE22FE0535E0FDCC0E22FE33650
:1005BE0049F40E944904E889F989A481AA930E940A
:1005CE004F04CFC0E33741F40E9449040E94570400
:1005DE000E94F8031E2F0AC0E03761F40E944904FE
:1005EE000E9457040E9402041E2F086002600F77BB
:1005FE0030E035C0E43611F0E93611F4046002C083
:10060E00E53731F4E4E5F0E0EE83FF8315E00DC04D
:10061E00E83511F4086004C0E83711F00C94B80303
:10062E00EEE5F0E0EE83FF8314E002FF14C00E94BB
:10063E0049040E946104AB85AA233AF4EA85FB853E
:10064E000E948004EA87FB874DE2403011F01F5F65
:10065E0001C00B7F04C00E9449040E94610400FD8A
:10066E0011C0151778F407FF08C002FF04C00B7FF6
:10067E00242F115001C020E301C020E20E9440044B
:10068E005150EFCF312F01FF17C03030A1F003FFD3
:10069E0006C0EE81FF812591EE83FF8305C0AE81FA
:1006AE00BF812D91AE83BF830E944004503009F06C
:1006BE0051503150EACF4BC020E3EE81FF810E94B2
:1006CE00C004E887F987EE81FF813296EE83FF83BF
:1006DE00E885F985AA85BB85AE17BF0750F02F5F59
:1006EE00A885B985EA85FB85EA1BFB0BEA87FB87A4
:1006FE00EFCF2A3328F003FF02C0295F01C0295D26
:10070E0004FD1AC0213320F4A885B985119709F488
:10071E0009C0531710F000FF01C013C020E207FFFD
:10072E000BC020E3006102FF07C00B7F4A930E94BB
:10073E004F04503009F051500E944004503009F0DF
:10074E0051503150A885B985129708F0B5CF00FFEA
:10075E0008C0503031F05150E0E2EA930E944F044D
:10076E00F8CF10E0DDCEAC85BD850E94BC040E94A2
:10077E00D00464960895FF92F82E26970E94CB041B
:10078E000E946904309719F4EFEFFFEF25C0DE01E8
:10079E0016960E947C048D010E946904EE83FF83ED
:1007AE00E0E0E887E987DE011A960E947C040E9449
:1007BE00BC04FA93EA931A930A93EFE4F2E0FA93E5
:1007CE00EA93FE013A96FA93EA93A0DE9F01AE8178
:1007DE00BF81E0E0EC93F9010E94D2042A96FF90CB
:1007EE000895A991B991EE27FF276D91662311F017
:1007FE003196FBCF0895AA27BB27E991F991059071
:10080E00002011F01196FBCFFD010895FA93EA93A3
:10081E000C947004E881F981AA81BB810895E0E00F
:10082E00E0939001E09391010C94DC01E091900132
:10083E00F09191010895E0919201F0919301FA9354
:10084E00EA93F4DFFA93EA930895E0939001F0931C
:10085E0091010895EA930E94BD01E3E0F0E0D6CF46
:10086E00E0E3EA930E94990188EE93E00197F1F795
:10087E0008952A93ED85FE85FA93EA93E989FA891C
:10088E0009950895E889F9893497E88BF98B0895CD
:10089E00ED85FE85FA93EA93E989FA89099508951B
:1008AE00A889B98914960E94BC04EE83FF83FA933B
:1008BE00EA930895A889B98914960E94BC04EA8720
:1008CE00FB870895DE011C960E947C040E94BC04E6
:1008DE000895E991F991309639F080E197E2019708
:1008EE00F1F7A8953197C9F708950024AF0DB01D03
:1008FE000895F195E195F04008956F2F660F660B00
:10090E00762F0895FA9FF02DEB9FF00DEA9FE02DC4
:10091E00F10D08951CD0F6DF0EF4EBDF08950024E0
:10092E00112490E1AA0FBB1F001C111C0E1A1F0AE6
:10093E0018F40E0E1F1E01C0A1609A9599F7FD01C5
:10094E00D001089504D0EBDF0EF4D3DF0895E894C0
:10095E00F7FF02C0CEDF6894B7FF06C0A095B09532
:10096E00119600F8039400FA0895ED91FC911197F9
:10097E0008950590F491E02D08957A936A93FA9371
:10098E00EA9308955A934A933A932A931A930A93A1
:10099E0008955D814C813B812A81198108810895DA
:00000001FF
